:100000000C9430000C94BD170C94BD170C94BD17C4
:100010000C94BD170C94BD170C94BD170C94BD1710
:100020000C94BD170C94BD170C94BD170C94BD1700
:100030000C94BD170C94BD170C94BD170C94BD17F0
:100040000C94BD170C94BD170C94BD170C94BD17E0
:100050000C94BD170060006280006200EA002F88E7
:1000600011241FBECFE5D8E0DEBFCDBFE4E5F0E050
:1000700040E017C0B591A59135912591059107FDF7
:100080000CC095918591EF01F92FE82F05900D9205
:10009000A217B307D9F7FE0104C01D92A217B30738
:1000A000E1F7E036F40731F70E940D090C944B1785
:0400B000F894FFCFF2
:1000B400A6E2B0E0E0E6F0E00C94361698A38F8F49
:1000C4007F8B6E8B288FFB010190F081E02DFA87E6
:1000D400E987FB0102811381248135813B8B2A8BC3
:1000E400808591859AA389A326803780FA01808030
:1000F4009180A280B38020E030E0A901C501B40161
:100104000E94A81787FF06C0B7FAB094B7F8B09456
:100114008DE204C0598552FF47C38BE2F10180830D
:100124002A893B89215031093C832B8341E050E0EB
:10013400598B488B06C08A899B899C838B83198A37
:10014400188AD501C401BF770097E0E8AE07EFE74E
:10015400BE0799F4F88D2F2FFF0F330B215431096B
:1001640088899989820D931D2A31310518F462EC2E
:1001740070E019C066EC70E016C00197A048BF4754
:10018400A8F0488D242F440F330B2154310988895A
:100194009989820D931D2A31310518F46AEC70E0B7
:1001A40002C06EEC70E00E947017EDC220E030E0F7
:1001B400A901C501B4010E94A817C12CD12C20E8C3
:1001C400E22E2FE3F22E1A821982882309F48CC0BE
:1001D4008D829E82AF82B88620E030E040E251E416
:1001E400C701B6010E94B6172B013C01D501C40119
:1001F40084199509A609B709B7FF07C0B095A0955A
:10020400909581959F4FAF4FBF4F0297A105B105C0
:1002140044F489819A8101969A83898373016201E6
:10022400DBCFA5019401C301B2010E94A81787FD89
:10023400F0CF8D819E81AF81B8858C199D09AE095F
:10024400BF090196A11DB11D0397A105B10508F4CD
:1002540049C01E821D82A5019401C701B6010E94F6
:10026400AD1718160CF040C0E981FA81E43DFE4F49
:10027400E4F44D815E81452BC1F420E030E040E898
:100284005AE5C501B4010E94B6174B015C0120E098
:1002940030E040E85AE5C701B6010E94B6176B0189
:1002A4007C0181E090E09E838D8320E030E040E299
:1002B40051E4C701B6010E94B2176B017C01E981C8
:1002C400FA813197FA83E983D501C4018C199D0918
:1002D400AE09BF090196A11DB11D0397A105B10582
:1002E40008F0B9CF46015701288D022E000C330BBC
:1002F400398F288FC9010E9468178A8F17FD03C0A0
:100304001E830D8304C046E050E05E834D835A8D06
:10031400573641F4012B09F04CC281E090E09E83F2
:100324008D8347C24A8D4F8706C029813A8137FFA2
:1003340052C256E65F878D819E8101969E838D838E
:100344009F859636B9F4E981FA81F7FF08C0C12C7C
:10035400D12C90E8E92E9FE3F92E1A821982FA8DA6
:10036400F73641F02D813E8149815A81240F351F92
:100374003E832D831C2DDDA2EBA20F2D8B869C8644
:10038400AD86BE861D8A1C8A8C899D89ED81FE817D
:100394008E179F07DCF5212F3DA14BA1502F6B85B4
:1003A4007C858D859E850E94B2170E946E0E2B015E
:1003B4003C010E9486176B8FA3019201612F7DA1DE
:1003C4008BA1902F0E94B6172B853C854D855E85A9
:1003D4000E947F179B01AC0150582B873C874D87A7
:1003E4005E8720E030E040E251E4612F7DA18BA1E3
:1003F400902F0E94B217162F7DA38BA3092F4C892F
:100404005D894F5F5F4F5D8B4C8BBECF20E030E04A
:1004140040EA50E4612F7DA18BA1902F0E94B61772
:100424002B013C019B01AC016B857C858D859E85F0
:100434000E94A81787FD0DC0A30192016B857C85DE
:100444008D859E850E94A817811106C0FB8DF0FD45
:1004540003C0412C512C3201A5019401C301B20106
:100464000E9480174B015C0120E030E040E251E43F
:10047400C701B6010E94B6176B877C8B182F092F12
:100484009B01482F592FC501B4010E94AD1787FD68
:1004940014C029813A812F5F3F4F3A8329833F85D6
:1004A400363679F44D815E814F5F5F4F5E834D83B5
:1004B4005B855DA38C898EA30BC0CB86DC8A1E2D45
:1004C4000F2D9F85953639F0EB85EDA3FC89FEA3AE
:1004D400E980FA8006C02B852DA33C893EA3E12C3C
:1004E400F12C48885988C12CD12C1D8A1C8A1C8661
:1004F4001B8649855A85407155275CA34BA32B85E0
:100504003C854D815E812417350734F08C899D89A3
:10051400892B09F494C09FC03201EE89FF8980853C
:10052400918505974816590688F72DA13EA1412FBC
:10053400502FC501B4010E94B2170E946E0E6B8F3A
:100544007C8F8D8F9E8F0E9486176A30710514F000
:1005540069E070E08BA19CA1892B69F46115710598
:1005640051F49A8D973639F4F7FE05C03601EFEF52
:100574006E1A7E0A38C02C893D89232B99F4F7FE24
:1005840011C03FEF431A530AF101E60DF71D4EE285
:1005940040838B819C8101979C838B83E1E0F0E015
:1005A400FD8BEC8BF101E40DF51D36016114710432
:1005B40031F020E3219331E0631A7108F7CFC601CB
:1005C400840D951D2B813C812C193D092C014FEF85
:1005D400441A540AF101E80FF91F605D6083C901F0
:1005E40001979C838B832B8D3C8D4D8D5E8D6DA1EE
:1005F4007EA1812F902F0E94B617A50194010E941D
:100604007F174B015C01B7FAB094B7F8B09420E0BF
:1006140030E040E251E46DA17EA1812F902F0E9431
:10062400B2176DA37EA3182F092F91E0E91AF108E0
:10063400EB85FC853196FC87EB87630160CFF985F8
:10064400F4FF09C0F101E40DF51D8EE280839201EF
:100654002F5F3F4F2901A101440D551D5E834D833A
:10066400FA011082FF85F53609F061C0E9A1FAA10B
:10067400E20DF31D3197108229813A8137FF08C0BA
:100684003195219531093A83298301E010E002C0B4
:1006940000E010E0E9A1FAA13197E20DF31D22E098
:1006A40030E08AE0E82EF12CCF01821993094981C8
:1006B4005A81452B91F089819A81B7010E94C8160D
:1006C400805D829369837A83215031094B815C81F7
:1006D400415051095C834B83E7CF121613065CF338
:1006E400FC013197E20DF31D012B11F42BE201C043
:1006F4002DE220830297B101680F791F288D398D6F
:10070400215431092A31310510F025E601C025E4D0
:10071400FB0120832B813C81225031093C832B83B4
:100724004816590624F48D819E810E9470173985DC
:1007340031FF29C030FD27C04B815C81141615069A
:1007440014F5C1010E942317820D931D9C012219E7
:10075400330948895989241735074CF0FC01208155
:10076400EB81FC81E80FF91F20830197EFCF4B81C8
:100774005C8160E370E088899989820D931D0E94F1
:100784005F171B8A1A8AC1010E94231709851A85DB
:100794002A893B89AC01B1018F8D98A10E948613EF
:1007A400A696E2E10C945216598553FFC4CC80E21C
:1007B400B5CC89819A818C3F9F4F54F0E981FA81AD
:1007C4002D813E81E217F3070CF4AFCD35E604C06A
:0C07D400F5E6FF87CFCD36E63F87CCCDA1
:1007E000A0E2B0E0E6EFF3E00C943616998F888F24
:1007F000FB01298320812F8331813A8F828193816C
:10080000998B888B248135813D872C8780859185C4
:100810009C8F8B8F66807780FA01C080D180E280C8
:10082000F38020E030E0A901C701B6010E94A817BB
:1008300087FF06C0F7FAF094F7F8F0948DE204C051
:100840005F8152FFE1C28BE2F30180832C853D85FD
:10085000215031093F872E8741E050E05E834D8370
:1008600006C08C859D859F878E871E821D82B7015D
:10087000A6017F77E9810E2E000CFF0BFB87EA872C
:1008800041155105F0E86F07FFE77F07A9F42A85B6
:100890003B85215431098D819E81860D971D2A311A
:1008A000310518F462EB70E002C066EB70E00E9464
:1008B000701786EB90E098C28D819E81860D971D02
:1008C0004130510560487F4788F02A853B85215497
:1008D00031092A31310518F46AEB70E002C06EEB81
:1008E00070E00E9470178EEB90E07EC220E3FC0166
:1008F0002083ED81FE813196E60DF71D2D813E812D
:100900002E5F3F4F3E832D834A855B8541545109BD
:100910005F8B4E8B4A31510510F088E701C088E5A6
:10092000808320E030E0A901C701B6010E94A8172A
:100930001C821B821F8E1982882309F469C050E82B
:1009400058A38FE38A832F8D398148A15A816F8DF7
:10095000798188A19A810E9480175B018C01A7018F
:1009600096010E94AD1718160CF447C0EB81FC816C
:100970003196FC83EB83AF8EB98208A31A83E3CF51
:1009800020E030E040E05FE36F8D798188A19A81BB
:100990000E94B61720E030E0A9010E94A81781113B
:1009A00018C020E030E040E85AE56F8D798188A1D9
:1009B0009A810E94B6176F8F798388A39A8320E06B
:1009C00030E040E85AE5C701B6010E94B6176B0156
:1009D0007C0120E030E040E05FE36F8D798188A109
:1009E0009A810E94B6176F8F798388A39A832B818F
:1009F0003C81215031093C832B832F8D398148A1C3
:100A00005A81C701B6010E94A81787FDB9CF04C05B
:100A100030E838A34FE34A838889998997FF02C059
:100A200088E190E0FC013196F987E8878F8C998006
:100A3000A8A0BA8016018701412C512C9401A50170
:100A4000B101C8010E94B2170E946E0E6A8B7B8BA7
:100A50008C8B9D8B9401A5010E94B6179B01AC0164
:100A6000B101C8010E947F171B018C0120E030E01A
:100A700040E85DE3B401C5010E94B6174B015C017B
:100A8000FFEF4F1A5F0A2889398937FF09C020E034
:100A900030E0A901B101C8010E94A817882331F0F4
:100AA00048855985441655064CF202C05986488639
:100AB00020E030E040E051E4B401C5010E94B617E7
:100AC0004B015C019B01AC01B101C8010E94A81758
:100AD00087FD12C0A5019401B101C8010E94A817A9
:100AE00081110DC06A897B898C899D890E94861736
:100AF00061707727672B19F4812C912C5401A50183
:100B00009401C701B6010E9480176B017C01DC01D2
:100B1000CB01BF770097A048BF4709F4B8CE2E8419
:100B20003F8482E0281A3108E885F985F195E1953E
:100B3000F109FB8BEA8B0D811E81412C512C1F8604
:100B40001E86198618862B8D3C8D255031093E8FC7
:100B50002D8F1B870A87ED8DFE8D0E171F0708F05E
:100B600093C02F8D398148A15A81C701B6010E94D7
:100B7000B2170E946E0E4B015C010E948617AB01FA
:100B80006115710541F4E885F985EF2B21F0FFEF40
:100B90004F1A5F0A4FC02E853F85232B99F4E885B5
:100BA000F985EF2B79F00F5F1F4FEA85FB85E60D86
:100BB000F71D2EE2208331E0231A3108E1E0F0E056
:100BC000FF87EE87F301E00FF11F92012115310538
:100BD00029F0A0E3A19321503109F8CFF801E40DE9
:100BE000F51DFB87EA87241835084A3051051CF4A7
:100BF000605D7F4F02C0695A7F4F2E893F892A313D
:100C0000310550F4CB018062815691094A9720F456
:100C1000CB010E945617BC010A851B850F5F1F4F31
:100C2000EA85FB85E60DF71D608331E0231A310864
:100C3000412C512C2F8D398148A15A81C501B40115
:100C40000E94B6179B01AC01C701B6010E947F1735
:100C50006B017C0120E030E040E85DE36F8D79813D
:100C600088A19A810E94B6176F8F798388A39A838F
:100C70004885598541505109598748878A899B89F8
:100C80008417950709F065CF2E853F85232B49F5FD
:100C9000F301E00FF11F41145104E1F04889598933
:100CA00014161506BCF45F8150FD14C08EE28083DB
:100CB000F8013196E60DF71DC20120E3219301975B
:100CC000E9F7040D151D0F5F1F4F40945094240C3D
:100CD000351C07C08F8184FF04C08EE280830F5FC4
:100CE0001F4FF301E00FF11FF987E8871082EB8DAA
:100CF000FC8D3197E60DF71D10822B813C8137FF6B
:100D000009C03195219531093C832B83EE24E3946E
:100D1000F12C02C0E12CF12C21E030E08AE0C82E59
:100D2000D12CCF01861997094B815C81452B79F035
:100D30008B819C81B6010E94C816805D82936B8373
:100D40007C832150310941E0241A3108EACF213057
:100D5000310571F3FC013197E60DF71DE114F10443
:100D600011F42BE201C02DE220830297B301680F3A
:100D7000791FEE89FF897A9710F020E701C020E5FE
:100D8000FB0120830817190724F4888599850E94A0
:100D90007017FF81F1FF27C0F0FD25C022E0221A65
:100DA000310812141304FCF4C3010E942317860DAA
:100DB000971D9C01261937094D815E81241735073F
:100DC0003CF0FC012081E20DF31D20830197F1CF5F
:100DD000A10160E370E08D819E81860D971D0E94C8
:100DE0005F171D861C86C3010E9423170F811A8D71
:100DF0002C853D85AC01B301888D998D0E948613A9
:100E0000A096E2E10C9452165F8153FF2ACD80E256
:020E10001BCDF8
:100E1200A2E1B0E0EFE0F7E00C9439164C016B016F
:100E22001A8219828FEF9FEF9C838B831E821D8211
:100E320058874F833A872987A12CB12CD6016D9010
:100E42007C90F301EA0DFB1D808181110FC0D60158
:100E5200ED93FC938081853209F0D9C13F01BFEF48
:100E62006B1A7B0AF6017182608219C0853279F3AE
:100E7200B401082E000C990B0E9438124FEFA41AED
:100E8200B40ADCCF8C32ACF08D32F9F489819A81CC
:100E920081609A8389833196D601ED93FC93D601C2
:100EA200ED91FC9180818B3269F789819A8184600E
:100EB200F0CF803221F489819A818860EACF83322F
:100EC20051F489819A818061E4CF803321F4898150
:100ED2009A818260DECFB701C6010E94F3149E831D
:100EE2008D8397FF0BC029813A81B1E02B273A838A
:100EF20029839195819591099E838D8389819A8118
:100F020080FF03C08D7F9A838983D601ED91FC9186
:100F1200119780818E3249F43196ED93FC93B7019B
:100F2200C6010E94F3149C838B83C6010E94BB15E9
:100F3200582ED601ED91FC918081082E000C990B60
:100F42000E946817893609F443C084F4833609F491
:100F520008C134F4853209F42DC18136E1F036C17D
:100F62008436B1F188360CF4DFC030C1803709F421
:100F72009AC03CF48E3609F4C2C08F3609F461C0BF
:100F820025C1853709F440C0883709F476C0833714
:100F920009F01CC1F9C0652D70E0A701CE010B96C6
:100FA2000E94DB15892B09F42CC1D601ED91FC912D
:100FB2001197CF0101968D939C932081AE01455FDD
:100FC2005F4FBE016F5F7F4FC4010E94F00316C1E5
:100FD200652D70E0970141E050E0CE010B960E9432
:100FE200090D892B09F40DC1F601808191810196C9
:100FF20091838083AE01455F5F4FBE016F5F7F4F7C
:10100200C4010E944A0CFAC0652D70E0970140E0CD
:1010120050E0CE010B960E94090D892B09F4F1C014
:10102200D6018D919C91119701968D939C93AE015F
:10103200455F5F4FBE016F5F7F4FC4010E94F61094
:10104200DDC0652D70E0970140E050E0CE010B96C7
:101052000E94090D892B09F4D4C0F6018081918187
:10106200019691838083AE01455F5F4FBE016F5F42
:101072007F4FC4010E942610C1C0652D70E0970108
:1010820040E050E0CE010B960E94090D892B09F435
:10109200B8C0D601ED91FC911197CF0101968D93C5
:1010A2009C93208122C0D701ED91FC911197CF0131
:1010B20002968D939C93008111810B871C871D865C
:1010C2001E861F86188A198A1A8AF60180819181E2
:1010D2000196918380838B859C85892B29F420E05E
:1010E20030E041EE50E084C028E7AE01455F5F4F3B
:1010F200BE016F5F7F4FC4010E940A0B7FC0A50132
:10110200400F511F652D70E09701CE010B960E9492
:10111200500F892B09F475C0D6018D919C911197BE
:1011220001968D939C9373C0652D70E0A701CE014B
:101132000B960E94DB15892B09F463C0D601ED9151
:10114200FC911197CF0101968D939C932081AE0162
:10115200455F5F4FBE016F5F7F4FC4010E945A001F
:101162004DC0B0E85B124DC0F601808191810196BD
:1011720091838083D701ED91FC911197CF01029663
:101182008D939C93808120C0B0E85B123AC0F60137
:1011920080819181019691838083D701ED91FC91A9
:1011A2001197CF0102968D939C934081518120E04B
:1011B20030E01EC0B0E85B1224C0F601208131810C
:1011C2002F5F3F4F318320838B870DC085E28B8752
:1011D200D6016D927C921A8219821E821D828FEF35
:1011E2009FEF9C838B8321E030E0AE01455F5F4F30
:1011F200BE016F5F7F4FC4010E944B158A0D9B1D7C
:1012020007C0F60180819181019691838083C50197
:081212006296EFE00C94551602
:10121A00CF93DF93CDB7DEB729970FB6F894DEBF29
:10122A000FBECDBF80E887BB18BA89E0E3E9F0E0DA
:10123A00DE01119601900D928A95E1F7CE01019691
:10124A000E94841267E670E0CE0101960E949E1108
:10125A004FE060E0CE0101960E949D1660E0CE014B
:10126A0001960E94C51440E061E0CE0101960E94F9
:10127A009D1667E770E0CE0101960E949E114FE02D
:10128A0061E0CE0101960E949D1660E0CE010196B2
:10129A000E94C51410E001E082991BC0111119C007
:1012AA002FE788E391E0215080409040E1F700C0A9
:1012BA000000829920C04FE060E0CE0101960E94B2
:1012CA009D1661E070E0CE0101960E94F713102F7F
:1012DA0012C0829B10C0113071F42FE788E391E0AD
:1012EA00215080409040E1F700C0000010B312FB8B
:1012FA00112710F9102783991BC02FE788E391E083
:10130A00215080409040E1F700C00000839979C1E4
:10131A004FE061E0CE0101960E949D1661E070E007
:10132A00CE0101960E94F713113009F092C007C04E
:10133A00839967C1113009F0AFCF00E003C001E023
:10134A0001C000E0CE0101960E94841267E870E0B5
:10135A00CE0101960E949E1140E061E0CE01019605
:10136A000E949D166DE870E0CE0101960E949E11C2
:10137A0045E061E0CE0101960E949D1660E0CE0133
:10138A0001960E94C51410E0FF24F394EE24E3941E
:10139A00829910C0F1100EC02FE788E391E0215026
:1013AA0080409040E1F700C00000829916C0110FFA
:1013BA00FE2C13C0829B11C021E0F2120EC08FE7EF
:1013CA0098E321E0815090402040E1F700C00000FE
:1013DA00F0B2F2FAFF24F0F8FE24839911C0011149
:1013EA000FC08FE798E321E0815090402040E1F759
:1013FA0000C00000839916C0110F11600E2D12C093
:10140A00839B10C0013071F48FE798E321E081508B
:10141A0090402040E1F700C0000000B303FB002722
:10142A0000F90E2545E060E0CE0101960E949D1666
:10143A00612FCE0101960E942E1445E06E2DCE0139
:10144A0001960E949D16612FCE0101960E94C51435
:10145A009FCFCE0101960E9484126DE870E0CE0102
:10146A0001960E949E1140E061E0CE0101960E9421
:10147A009D1667E870E0CE0101960E949E1146E033
:10148A0060E0CE0101960E949D1647E060E0CE0121
:10149A0001960E949D1645E061E0CE0101960E94E8
:1014AA009D1660E0CE0101960E942E14912CC12C4B
:1014BA00D12CE12C01E0FF24F394829933C011115D
:1014CA0031C08FE798E321E0815090402040E1F756
:1014DA0000C0000082993BC0AE2CB12C8FEFA81A35
:1014EA00B80A9FE0A92290E8B922BB2054F421E06F
:1014FA00A21AB10880EFA82ABB24BA949FEFA91AAE
:10150A00B90AEA2CCA1409F146E060E0CE01019654
:10151A000E949D166A2DCE0101960E94C514CA2CFE
:10152A001F2D15C0829B13C0113089F42FE788E361
:10153A0091E0215080409040E1F700C0000010B3D4
:10154A0012FB112710F91F2502C0CA2C1F2D8399DF
:10155A0033C0011131C02FE788E391E02150804068
:10156A009040E1F700C0000083993BC0AD2CB12C3C
:10157A002FEFA21AB20A8FE0A82280E8B822BB2075
:10158A0054F491E0A91AB10820EFA22ABB24BA9414
:10159A008FEFA81AB80ADA2C9A1409F147E060E02A
:1015AA00CE0101960E949D166A2DCE0101960E94D7
:1015BA00C5149A2C0F2D15C0839B13C0013089F4D2
:1015CA009FE728E381E0915020408040E1F700C086
:1015DA00000000B303FB002700F90F2502C09A2C74
:1015EA000F2D45E06F2DCE0101960E949D1690E1C8
:1015FA00E99EB00111246D29CE0101960E942E1494
:0A160A005CCF113009F048CE9CCEF1
:10161400A4E1B0E0E0E1FBE00C94361698878F83F8
:101624007A8369835C8B4B8B122FDB011296ED91CD
:10163400FC91139714962D913C9115973E832D831D
:10164400CD90DC90119716962D903C901797F7FD4E
:1016540003C0E894C1F802C0E1E0F0E0C601807183
:1016640099279A878987C4FE1FC0AB89BC892C91AE
:1016740011963C91119712964C91129713965C9186
:10168400139714966C91149715967C91159716964A
:101694008C91169717969C91A0E00E943F1721F019
:1016A4008D819E81029702C08D819E819601287052
:1016B40033273C872B87C3FC0197AB89BC894C90AB
:1016C40011965C90119712966C90129713967C90D9
:1016D400139714968C90149715969C9015971696BC
:1016E400AC9016971796BC90A981BA811896ED9084
:1016F400FC901997B1E0EB1AF108D101AE0DBF1DB2
:101704001C929C838B839F01281B390B3E872D875A
:10171400C60182709927988B8F87812F012E000C28
:10172400990BDC01A154B109BA8BA98B32E0E31601
:10173400F10430F489859A85892B09F04CC073C073
:101744009201A301B401C501A0E00E943F1781F1F9
:10175400B1E0EB1AF108C2018F7099278A30910524
:1017640014F4C09602C0895A9F4FE989FA897A977E
:1017740048F49C012062215631092A31310510F4C4
:101784000E945617F101EE0DFF1D80832B813C81D1
:10179400215031093C832B839201A301B401C5017B
:1017A40004E00E94FD1529013A014B015C01BECF02
:1017B4008D859E85AB81BC818A0F9B1F18161906E7
:1017C4003CF21A161B060CF0B5CFEF85F889EF2B07
:1017D40009F0BECFAFCFAB89BC892C9111963C9157
:1017E400119712964C91129713965C911397149635
:1017F4006C91149715967C91159716968C91169763
:1018040017969C91A0E00E943F1769F0F101EE0D3C
:10181400FF1D31971083B2E0EB1AF108F101EE0DD0
:10182400FF1D80E38083EB85FC85EF2B41F0F1E025
:10183400EF1AF108F101EE0DFF1D80E28083A9810A
:10184400BA8118964D915C911997415051094E19DE
:101854005F09B1016E0D7F1D86012D813E818F814F
:1018640098850E9486139C01EF81F885808191817F
:1018740090FF09C0A981BA8112968D919C9113970A
:10188400821793070CF4C9016496E2E10C94521692
:10189400ADE0B0E0E0E5FCE00C9436169A87898769
:1018A4007C836B83FA01DB011296CD90DC90139755
:1018B40014968D919C9115979E838D83ED90FC9049
:1018C4001197FA82E98216960D90BC91A02DB887E3
:1018D400AF8320803180428053806480758086800D
:1018E40097808101B42DF52DE62D7B868C869D860F
:1018F4009101A201B301C401A0E00E943F174CF47E
:101904000E9413178901B42FF52FE62F7B878C874C
:101914009D87D7FC04C0E894E1F8FA82E98291013A
:10192400A201B301C401A0E0ED80FE800E943F1734
:101934001CF0898182FF04C081E0E81AF10805C027
:1019440083FF03C091E0E91AF108CE0101965C011E
:101954008AE0C82ED12C2B2F3F2F4E2F5B856C8510
:101964007D858B819C810E94C20DFC019101A201A5
:10197400B301C401A0E00E943F171CF0898182FFDB
:1019840012C031970F8118850E0F1F1F9101A201FC
:10199400B301C401A0E00E943F1714F08BE201C020
:1019A4008DE2D80108C083FF07C03197AF81B885A5
:1019B400AE0FBF1F80E28C9309811A81AB81BC8179
:1019C40018964D915C911997415051094E1B5F0B2C
:1019D4006F8178856E0F7F1F2D813E8189859A8561
:1019E4000E9486139C01E985FA858081918190FF8C
:1019F40009C0AB81BC8112968D919C91139782177B
:0E1A040093070CF4C9012D96E2E10C945216E2
:101A12000F931F93CF93DF93FC01D90168387105AF
:101A220031F194F461387105B1F12CF4603871052B
:101A320009F478C09FC06238710509F459C064384E
:101A4200710509F46FC096C0603A710509F448C087
:101A52002CF46039710509F44BC08CC0603C7105EF
:101A620009F476C0603F710509F472C083C0CD915C
:101A7200DC911197CE0102968D939C93452B39F000
:101A82009881892F880F880B908381835BC088811E
:101A92008083118268C0CD91DC911197CE010496AA
:101AA2008D939C93452B99F088819981AA81BB8162
:101AB200AC01BD01770F440B542FBA01808391838F
:101AC200A283B383448345834683478328C0088126
:101AD20019812A813B81008311832283338345C08C
:101AE200CD91DC911197CE0102968D939C9323C0E8
:101AF200CD91DC911197CE0108968D939C937881BC
:101B020069815A814B813C812D819E818F817083B5
:101B1200618352834383348325839683878381E061
:101B220090E02AC0CD91DC911197CE0102968D935F
:101B32009C93452BA1F099812881892F880F880BCE
:101B42002083918382838383848385838683E6CF04
:101B5200CD91DC911197CE0102968D939C930881D1
:101B620019810083118312821382148215821682D4
:101B72001782D5CF80E090E0DF91CF911F910F9136
:021B82000895C4
:101B8400A2E1B0E0E8ECFDE00C943616FC010A8B0F
:101B9400912E822E732E642E552E462E7D83CC8656
:101BA400DA86B986A886268137813F832E83D501BC
:101BB4008D919C91228133810084F185E02D3197B0
:101BC40037FF02C021E030E04E815F81E40FF51F52
:101BD4001082FC83EB831701A1E0B0E0BA83A983F0
:101BE400F901EE19FF09FE87ED879C012270332766
:101BF400388B2F873A85330F330B398BEB81FC817C
:101C04002E813F81E21BF30B4B815C81421753070A
:101C140009F44FC02A89392D482D572D662D752D6D
:101C2400842D9D81A0E00E943F1799F14C854B873C
:101C3400A42EBA84C988DC2CEC2CFC2C0C2D1C2D75
:101C44002A89392D482D572D662D752D842D9D817A
:101C54000E943117C90129839A83805DAB81BC81BD
:101C64008E93BC83AB83B1E02B1A31082A89392DBA
:101C7400482D572D662D752D842D9D810E94331777
:101C84002A8B932E842E752E662E572E482E9D83D6
:101C9400B5CF8D859E85820D931D1816190634F2D5
:101CA4001214130444F48F859889892B09F0BECF4C
:101CB40002C0E0E0F0E0A981BA81AB2B41F4A88531
:101CC400B9858D919C9111978F7E8D939C93CF01B3
:081CD4006296E2E10C94521645
:101CDC008F929F92AF92BF92CF92DF92EF92FF9230
:101CEC000F931F938B019C0157E136952795179500
:101CFC0007955A95D1F71127A8014F57510947312C
:101D0C0051050CF045C057FD2DC00FEF1FEF2FE70D
:101D1C0030E004C035952795179507954A95D2F76D
:101D2C004801590186229722A822B92289288A289B
:101D3C008B2871F197FF07C0DC01CB01800F911F3D
:101D4C00A21FB31F02C0DC01CB010095109520959A
:101D5C00309580239123A223B323482F392F2A2F88
:101D6C005B2F1AC097FF0FC08B019C01000F111F36
:101D7C00221F331F012B022B032B51F040E030E0CC
:101D8C0020E85FEB09C040E030E020E050E004C008
:101D9C00462F372F282F592F642F732F822F952FD3
:101DAC001F910F91FF90EF90DF90CF90BF90AF906D
:061DBC009F908F90089536
:101DC20010C00E94941758F00E948D1740F029F419
:101DD2005F3F29F00C94A21751110C949C170C949C
:101DE200BA170E94991568F39923B1F3552391F319
:101DF200951B550BBB27AA2762177307840738F078
:101E02009F5F5F4F220F331F441FAA1FA9F335D0D4
:101E12000E2E3AF0E0E832D091505040E695001C88
:101E2200CAF72BD0FE2F29D0660F771F881FBB1F42
:101E3200261737074807AB07B0E809F0BB0B802D20
:101E4200BF01FF2793585F4F3AF09E3F510578F04C
:101E52000C94A2170C949C175F3FE4F3983ED4F3C2
:101E6200869577956795B795F7959F5FC9F7880F20
:101E7200911D9695879597F90895E1E0660F771F72
:101E8200881FBB1F621773078407BA0720F0621B03
:0E1E9200730B840BBA0BEE1F88F7E0950895D2
:101EA000CF93DF93DC01F90164387105D9F164F453
:101EB0006138710521F16238710509F440C060385C
:101EC000710509F054C02EC060397105C1F184F468
:101ED0006838710509F04BC0C081D181CE010296EE
:101EE00091838083E881F981ED93FC9340833CC02A
:101EF000603A7105B9F0603C7105A1F038C0C0814D
:101F0000D181CE01029691838083E881F981ED939E
:101F1000FC93052E000C660B770B40835183628384
:101F2000738322C0C081D181CE01029691838083C8
:101F3000E881F981ED93FC935183408315C0C08102
:101F4000D181CE01029691838083E881F981ED935E
:101F5000FC9351834083852F880F880B8283838372
:101F6000848385838683878381E090E002C080E05C
:081F700090E0DF91CF9108958C
:101F78000FC00E948D1738F00E94941720F0952307
:101F880011F00C94A2170C94BA1711240C949C17F6
:101F98000E94991570F3959FC1F3950F50E0551F56
:101FA800629FF001729FBB27F00DB11D639FAA27A6
:101FB800F00DB11DAA1F649F6627B00DA11D661FF5
:101FC800829F2227B00DA11D621F739FB00DA11D16
:101FD800621F839FA00D611D221F749F3327A00DD0
:101FE800611D231F849F600D211D822F762F6A2F6C
:101FF80011249F5750409AF0F1F088234AF0EE0FD1
:10200800FF1FBB1F661F771F881F91505040A9F7FD
:102018009E3F510580F00C94A2170C949C175F3FCB
:10202800E4F3983ED4F3869577956795B795F79539
:10203800E7959F5FC1F7FE2B880F911D96958795B1
:0420480097F9089567
:10204C00A2E0B0E0ECE2F0E10C9436161C014B017E
:10205C00FA01DB0112962D913C91139714964D9039
:10206C005C9015978D919C9111979A838983169604
:10207C006D907C90179737FD03C08D7F9A83898371
:10208C000081118122813381448155816681778160
:10209C00FE0131965F0188E0C82ED12C7201C4017B
:1020AC000E94C20D298124FF06C00197F301E80F9D
:1020BC00F91F20E32083298123FF06C00197F30138
:1020CC00E80FF91F20E2208309811A81D4011896A8
:1020DC004D915C91199741505109481B590BB30113
:1020EC00680F791F9201C1010E9486139C01F101B6
:1020FC008081918190FF08C0D40112968D919C91A2
:10210C001397821793070CF4C9012296E2E10C9401
:02211C00521659
:10211E0011C00E948D1738F00E94941720F039F4E8
:10212E009F3F19F426F40C94BA170EF4E095E7FBD2
:10213E000C94A217E92F0E94991558F3BA1762074B
:10214E0073078407950720F079F4A6F50C949B1776
:10215E000EF4E0950B2EBA2FA02D0B01B9019001B4
:10216E000C01CA01A0011124FF27591B99F0593FF8
:10217E0050F4503E68F11A16F040A22F232F342F40
:10218E004427585FF3CF469537952795A795F0408E
:10219E005395C9F77EF41F16BA0B620B730B840BA3
:1021AE00BAF09150A1F0FF0FBB1F661F771F881F5B
:1021BE00C2F70EC0BA0F621F731F841F48F48795B3
:1021CE0077956795B795F7959E3F08F0B0CF9395A5
:0E21DE00880F08F09927EE0F979587950895C2
:1021EC00A2E0B0E0ECEFF0E10C9436163C014B01B0
:1021FC00FA01DB0112962D913C91139714964D9098
:10220C005C9015978D919C9111979A838983169662
:10221C002D903C90179737FD03C08D7F9A8389834F
:10222C0000811181228133814481558166817781BE
:10223C00FE0131965F018AE0C82ED12C7201C401D7
:10224C000E94C20D09811A81D40118964D915C919E
:10225C00199741505109481B590BB101680F791F4F
:10226C009201C3010E9486139C01F301808191812C
:10227C0090FF08C0D40112968D919C9113978217F0
:0E228C0093070CF4C9012296E2E10C9452165D
:10229A0088249924F401E401B0E49F93AA279A15AB
:1022AA008B049C04ED05FE05CF05D007A10798F421
:1022BA00AD2FDC2FCF2FFE2FE92D982C892E982FAA
:1022CA00872F762F652F542F432F322F2227B8506E
:1022DA0031F7BF9127C01B2EBF91BB27220F331F97
:1022EA00441F551F661F771F881F991F881C991C3A
:1022FA00EE1FFF1FCC1FDD1FAA1FBB1F8A149B04E2
:10230A00EC05FD05CE05DF05A007B10748F08A18E0
:10231A009B08EC09FD09CE09DF09A00BB10B21606E
:10232A001A94E1F62EF49401AF01BE01CD01000C1E
:02233A00089504
:10233C00EF92FF921F93CF93DF930097E1F161151A
:10234C007105D9F1FB0110811123C9F1EC017B015D
:10235C00FFEFEF1AFF0A41E06E818D810E94BF13DF
:10236C00612F62956F70CE010E94211541E0688546
:10237C008F810E94BF1340E068858F810E94BF133C
:10238C00612FCE010E94211541E068858F810E944A
:10239C00BF1340E068858F810E94BF138FE097E2E6
:1023AC000197F1F700C00000F70111917F011111A5
:1023BC00D2CF80E005C08FEF03C08FEF01C080E06B
:0C23CC00DF91CF911F91FF90EF900895DA
:1023D800843008F043C068300CF042C0433008F045
:1023E80041C04230D1F4E82FF0E0EE0FFF1FEE526B
:1023F800FF4F0190F081E02D218181E090E002C043
:10240800880F991F6A95E2F7922F982B91839281F2
:1024180080958923828380E00895E82FF0E0EE0F0D
:10242800FF1FEE52FF4F0190F081E02D318181E0D6
:1024380090E002C0880F991F6A95E2F7282F20952F
:1024480032233183413029F49281892B828380E0C1
:10245800089582812823228380E008958FEF0895CC
:082468008FEF08958FEF089536
:102470000F931F93CF93DF93DB01109719F48FEF26
:102480009FEF3DC02D913C91119730FF25C01696CE
:102490004D915C91179714962D913C911597421789
:1024A000530778F41296ED91FC911397808312965E
:1024B0002D913C9113972F5F3F4F13963C932E9392
:1024C000129716962D913C9117972F5F3F4F1796B5
:1024D0003C932E93169713C01C96ED91FC911D977B
:1024E000309769F2EB01092F182F0995892B39F6DE
:1024F0008E819F8101969F838E83812F902FDF9104
:08250000CF911F910F91089586
:10250800EF92FF920F931F93CF93DF938C01009765
:1025180019F1EC0121967C0185E0E80EF11C699126
:1025280042E0F80180810E94EC1181112CC0CE1587
:10253800DF05A9F742E0F801668185810E94EC1168
:10254800811121C042E0F801608587810E94EC1169
:10255800C82F882311F017C0CFEF62E0C8010E948E
:10256800641461E0C8010E94641468E2C8010E9412
:1025780064146FE0C8010E94641466E0C8010E94F8
:1025880064148C2F00C0DF91CF911F910F91FF90A1
:04259800EF90089523
:10259C00A0E1B0E0E4EDF2E10C944016FB01BA01CD
:1025AC00AE014F5F5F4F6A0140E1D6011D924A9523
:1025BC00E9F742E051E05A8349839C838B83F7FF10
:1025CC0009C08FE490E090936100809360008FEFDE
:1025DC009FEF1CC0309729F0AF01415051095E8329
:1025EC004D83A9018F017C01C6010E946D16011556
:1025FC00110561F04F8158852D813E81421753079B
:10260C0008F49A01F701E20FF31F10826096E8E0DC
:04261C000C945C16A8
:10262000A2E8B0E0E6E1F3E10C943C165C014A015B
:10263000CF57DF4F79836883C158D040C12CD12C4C
:10264000CF57DF4FE881F981C158D040808188237E
:10265000E9F07401860120E830E0AE014F5F5F4F82
:10266000BE016F577F4FC5010E9409078C0D9D1D4C
:102670008C159D054CF48FE490E09093610080935D
:1026800060008FEF9FEF03C06C01DACFC601CE5719
:08269000DF4FECE00C9458163A
:10269800A0E1B0E0E2E5F3E10C944216FB01BA01D7
:1026A800AE014F5F5F4F7A0140E1D7011D924A9515
:1026B800E9F742E051E05A8349839C838B83F7FF13
:1026C80009C08FE490E090936100809360008FEFE1
:1026D8009FEF14C0A9018C013197FE83ED83C701D8
:1026E8000E9485164F8158852D813E8142175307D8
:1026F80008F49A01F801E20FF31F10826096E6E0F1
:042708000C945E16B9
:10270C00A0E0B0E0ECE8F3E10C943C166C015B014A
:10271C007A01E901480181E08822992400FD03C077
:10272C004217530750F0A701B501C6010E941916B4
:10273C00EC16FD0610F0C70117C08E010E191F090B
:10274C000115110541F0B60180E290E00E943812AB
:10275C0001501109F5CF8114910429F4A701B50199
:10276C00C6010E941916CE01CDB7DEB7ECE00C9471
:02277C005816ED
:10277E00843080F5683084F5E82FF0E0EE0FFF1F0F
:10278E00EE52FF4F0190F081E02D818190E0062EF8
:10279E0002C0959587950A94E2F780FF1FC04423E7
:1027AE0061F0228181E090E002C0880F991F6A9546
:1027BE00E2F7822B828380E00895228181E090E00F
:1027CE0002C0880F991F6A95E2F780958223828353
:1027DE0080E008958FEF08958FEF08958FEF08959D
:1027EE00EF92FF920F931F93CF93DF93CDB7DEB788
:1027FE002C970FB6F894DEBF0FBECDBF0097C9F071
:10280E008C017F936F9387EE90E09F938F93CE0111
:10281E0001967C019F938F930E94F016B701C80119
:10282E000E949E110F900F900F900F900F900F908F
:10283E0001C08FEF2C960FB6F894DEBF0FBECDBF42
:0E284E00DF91CF911F910F91FF90EF900895B1
:10285C00CF93DF93CDB7DEB729970FB6F894DEBFD1
:10286C000FBECDBFDC019E012F5F3F4F89E0F90108
:10287C0011928A95E9F7F90127E030E070E0AB019D
:10288C00022E02C0559547950A94E2F740FD02C00E
:10289C0090E301C091E391932150310980F7BE017F
:1028AC006F5F7F4FCD010E949E1129960FB6F89451
:0C28BC00DEBF0FBECDBFDF91CF910895AD
:1028C8001F93CF93DF93EC01162F40E06E818D812B
:1028D8000E94BF13612F62956F70CE010E9421156F
:1028E80041E068858F810E94BF1340E068858F8131
:1028F8000E94BF13612FCE010E94211541E0688517
:102908008F810E94BF1340E068858F810E94BF13AA
:102918008FE097E20197F1F700C00000DF91CF91B7
:042928001F9108955E
:10292C000E94A11588F09F5798F0B92F9927B7519D
:10293C00B0F0E1F0660F771F881F991F1AF0BA9557
:10294C00C9F714C0B13091F00E949B17B1E0089503
:10295C000C949B17672F782F8827B85F39F0B93FF5
:10296C00CCF3869577956795B395D9F73EF490950A
:0E297C008095709561957F4F8F4F9F4F089506
:10298A00EF92FF920F931F93CF93DF9300D00F9292
:10299A00CDB7DEB77C011F926F9382E690E09F93DA
:1029AA008F931F9283E08F938E010F5F1F4F1F93A8
:1029BA000F930E94B416B801C7010E949E110FB668
:1029CA00F894DEBF0FBECDBF0F900F900F90DF912E
:0C29DA00CF911F910F91FF90EF90089596
:1029E600DC01ED91FC91119780818A3221F080E023
:1029F60090E03AE00EC03196ED93FC93DB01ED9149
:102A0600FC911197CF0102968D939C9380819181C1
:102A16000895ED91FC911197208120532A3068F496
:102A2600389FA001399F500D1124CA01820F911DB4
:0C2A360031961196FC93EE93ECCF0895BE
:102A4200CF92DF92EF92FF921F93CF93DF937C019D
:102A5200162FEC016C0184E0C80ED11C10FF07C0D8
:102A620041E06981F70180810E94BF1306C040E006
:102A72006981F70180810E94BF1316952196CC15BA
:102A8200DD0561F7DF91CF911F91FF90EF90DF900D
:042A9200CF90089544
:102A9600A0E0B0E0E1E5F5E10C943E167C01FB0117
:102AA600EA01C901A280B380C480D580008111816A
:102AB600209711F4CAEDD0E0009719F4CE010E94D8
:102AC6002317B7FC04C0A816B90608F4C501960179
:102AD600AC01BE01C7010E948613CDB7DEB7EAE09E
:042AE6000C945A16DC
:102AEA00990F0008550FAA0BE0E8FEEF1616170615
:102AFA00E807F907C0F012161306E407F50798F07D
:102B0A00621B730B840B950B39F40A2661F0232B95
:102B1A00242B252B21F408950A2609F4A140A69511
:082B2A008FEF811D811D08954C
:102B320057FD9058440F551F59F05F3F71F047956C
:102B4200880F97FB991F61F09F3F79F08795089551
:102B5200121613061406551FF2CF4695F1DF08C070
:102B6200161617061806991FF1CF8695710561058D
:042B72000894089526
:102B7600CF93DF93EC0190E0E92FF0E0EE0FFF1F1B
:102B8600E456FF4F8081811102C081810EC0A88169
:102B9600B9812C91821305C091811196B983A883BE
:102BA60001C09F5F9B3040F3892FDF91CF9108953D
:102BB600FA0160387105CCF0623871051CF0633893
:102BC600710599F4A081B1819D012C5F3F4F31833E
:102BD60020834D915D916D917C91FC0140835183E1
:102BE6006283738381E090E0089580E090E0089529
:102BF60097FB10F8169400080F93083098F00850C9
:102C0600232F342F452F562F672F782F892F902D5E
:102C1600F4CF05949795879577956795579547953A
:0C2C2600379527950A95AAF70F9108959D
:102C3200A0E0B0E0EFE1F6E10C9440166C01EB018C
:102C42008A017B01E40EF51ECE15DF0541F0899164
:102C5200B601082E000C990B0E943812F5CFC8015C
:0A2C6200CDB7DEB7E8E00C945C1675
:102C6C002F923F924F925F926F927F928F929F9290
:102C7C00AF92BF92CF92DF92EF92FF920F931F937E
:102C8C00CF93DF93CDB7DEB7CA1BDB0B0FB6F8942F
:082C9C00DEBF0FBECDBF09949D
:102CA4002A88398848885F846E847D848C849B84D8
:102CB400AA84B984C884DF80EE80FD800C811B81E6
:102CC400AA81B981CE0FD11D0FB6F894DEBF0FBE15
:062CD400CDBFED010895E3
:102CDA00A2E0B0E0E3E7F6E10C9444168C015A83D3
:102CEA004983AE014F5F5F4F0E941013F8012081A4
:102CFA0024FF02C08FEF9FEF2296E4E00C94601647
:102D0A00A2E0B0E0EBE8F6E10C9444168C015A8399
:102D1A004983AE014F5F5F4F0E941013F801208173
:102D2A0024FF02C08FEF9FEF2296E4E00C94601616
:102D3A00009779F0623078F4483278F4611103C070
:102D4A00642F606802C0642F606C0E94641480E083
:0E2D5A0008958FEF08958FEF08958FEF08957D
:102D6800A0E0B0E0EAEBF6E10C9446169E01255F80
:102D78003F4F49855A856F8178858D819E810E9454
:082D8800CE12E2E00C94621689
:102D900097FB072E16F4009407D077FD09D00E9408
:102DA000DC1607FC05D03EF4909581959F4F089561
:082DB000709561957F4F0895B5
:102DB800AA1BBB1B51E107C0AA1FBB1FA617B70759
:102DC80010F0A61BB70B881F991F5A95A9F7809575
:082DD8009095BC01CD010895A6
:102DE000A0E0B0E0E6EFF6E10C944616AE01475FD6
:102DF0005F4F6F8178858D819E810E947817E2E018
:042E00000C946216B6
:102E0400092E0394000C11F4882352F0BB0F40F4F4
:102E1400BF2B11F460FF04C06F5F7F4F8F4F9F4F34
:022E240008950F
:102E26006095709580959095309540955095219533
:102E36003F4F4F4F5F4F6F4F7F4F8F4F9F4F0895BD
:102E4600FC01AF014F5F5F4F2081222311F0FA0191
:0C2E5600F8CF9F01281B390BC90108951B
:102E6200689401C0E8948F929F92CF93DF930E945F
:0C2E72004D11DF91CF919F908F9008953B
:102E7E000024A7FD00942A17300540055005600573
:082E8E00700580059005089510
:102E9600EC010E94C2170E94C117CE010E94C317FF
:062EA600CE010E94BF17DF
:102EAC009C01215631092A31310510F48F7599276F
:022EBC00089577
:102EBE00FC01480F591FE417F50711F06193FBCF82
:022ECE00089565
:102ED0009C01215431092A31310508F4806208959A
:102EE000FC01DB012D91BD0121932111FACF089541
:0E2EF0009A01AB016FEF7FE70E944C1308952B
:0E2EFE005058BB27AA270E948F100C94021771
:0E2F0C000E9496146894B1110C949C170895BD
:0E2F1A0000240A9416161706180609060895D4
:0E2F280000240A9412161306140605060895D6
:0E2F3600E894BB2766277727CB0197F908950B
:0C2F440097F99F6780E870E060E0089556
:0A2F50000E94751508F481E0089551
:0A2F5A000E94751508F48FEF08952A
:082F64000E94E10E0C9402171B
:082F6C000E94BC0F0C94021737
:062F74009FEF80EC0895C0
:042F7A000C940000B3
:042F7E000E94580055
:022F82000895B0
:022F84000895AE
:022F86000895AC
:102F8800253032580042494E203E3E2048455828B8
:102F980031293A2000484558203E3E2042494E28D3
:102FA80032293A200042494E3A20004845583A20F2
:0A2FB80000000304050600010002FA
:102FC20068076C094C836A9074A07AC00080688894
:062FD20000846C82008106
:102FD800494E4600696E66004E414E006E616E00B5
:102FE800494E4600696E66004E414E006E616E00A5
:082FF8003900360033003000FF
:07300000286E756C6C2900BD
:06300700286E696C29002F
:03300D0025640037
:00000001FF
